:100000000C9436000C945E000C945E000C945E0020
:100010000C945E000C945E000C945E000C945E00E8
:100020000C945E000C945E000C945E000C945E00D8
:100030000C945E000C945E000C945E000C945E00C8
:100040000C945E000C945E000C945E000C945E00B8
:100050000C945E000C945E000C945E000C945E00A8
:100060000C945E000C945E0035021D0211241FBE2C
:10007000CFEFD8E0DEBFCDBF11E0A0E0B1E0EEE011
:10008000F6E102C005900D92A833B107D9F721E03F
:10009000A8E3B1E001C01D92A43AB207E1F710E075
:1000A000C5E3D0E004C02197FE010E945206C4338C
:1000B000D107C9F70E944D020C94FA0A0C94000073
:1000C000089580FF0BC05C9A81FF0AC05D9A82FF91
:1000D00009C05E9A83FF08C05F9A08955C98F4CFC8
:1000E0005D98F5CF5E98F6CF5F980895CF93DF9334
:1000F000EC0180919A0190919B010097E9F0688151
:10010000798161157105B1F040919C0150919D017B
:100110002C813D814217530768F00E9443088C816F
:100120009D8190939F0180939E011D821C82DF918F
:10013000CF9108950E94F4068881998190939B0144
:1001400080939A018A819B8190939D0180939C0169
:100150008C819D8190939F0180939E0119821882CA
:100160001B821A82E2CFFC0180819181009711F0FD
:100170000C94F4060895CF93DF93C0919E01D09123
:100180009F01209729F410928A01DF91CF91089561
:1001900001978C179D0708F4EC0160919A0170910A
:1001A0009B01AE018AE891E00E944A08C657DE4FE3
:1001B0001882EBCF0F931F93CF93DF93EC018881CD
:1001C0009981009759F02A813B812617370730F033
:1001D00081E0DF91CF911F910F9108958B016F5FA7
:1001E0007F4F0E947D07009759F0998388831B8376
:1001F0000A832C813D81232B59F7FC011082E8CF23
:1002000080E0E7CFCF92DF92EF92FF920F931F93A0
:10021000CF93DF93CDB7DEB7A2970FB6F894DEBFCA
:100220000FBECDBF8C01CB01BA01F8011182108243
:1002300013821282158214822AE0AE014F5F5F4F53
:100240006A010E946205F60101900020E9F73197EA
:100250007F01EC18FD08B701C8010E94DA00F8011F
:100260002081318181111CC02115310519F0C9018E
:100270000E94F406F8011182108215821482138202
:100280001282A2960FB6F894DEBF0FBECDBFDF91EB
:10029000CF911F910F91FF90EF90DF90CF90089535
:1002A000F582E482B601C9010E944308EACFCF93E8
:1002B000DF93EC01198218821B821A821D821C8234
:1002C00070E060E00E94DA002881398181110FC05E
:1002D0002115310519F0C9010E94F406198218820E
:1002E0001D821C821B821A82DF91CF9108951D828C
:1002F0001C826EE271E0C901DF91CF910C9443083A
:10030000CF93C82F299A82958F700E9461002998F7
:10031000299A8C2F0E946100299887EC90E0019720
:10032000F1F700C00000CF910895CF93DF93EC0167
:100330008991882321F0289A0E948001F9CFDF91CA
:10034000CF91089528980C948001EF92FF920F931B
:100350001F93CF93DF93CDB7DEB72C970FB6F894EA
:10036000DEBF0FBECDBF80E80E94A2018EE091E00B
:100370000E94950180EC0E94A20187E191E00E9419
:10038000950188E80E94A20180E291E00E94950117
:1003900089EC0E94A201809103018F938091020158
:1003A0008F9389E2E82E81E0F82EFF92EF928E0182
:1003B0000F5F1F4F1F930F930E945908C8010E949F
:1003C00095018CE291E00E9495018091000190914D
:1003D00001010F900F900F900F900F900F908A30A7
:1003E000910514F59F938F93FF92EF921F930F93B4
:1003F0000E9459088FE291E00E949501C8010E9475
:1004000095010F900F900F900F900F900F902C96DA
:100410000FB6F894DEBF0FBECDBFDF91CF911F9115
:100420000F91FF90EF9008959F938F93FF92EF921B
:100430001F930F930E945908E1CF84E891E00E9436
:10044000B3008EE791E00E94B3008AE991E00E9438
:10045000B30088E791E00E94B30082E791E00E9438
:10046000B3008CE691E00C94B3008CE691E00E941E
:10047000570182E791E00E94570188E791E00E94CE
:1004800057018AE991E00E9457018EE791E00E94AE
:10049000570184E891E00C945701CF93DF9300D08B
:1004A00000D000D0CDB7DEB7549A559A569A579AD5
:1004B000219A209A8FE59AEE0197F1F700C000008B
:1004C0002898299813E0299A83E00E9461002998CE
:1004D0008FE19EE40197F1F700C00000115099F7F9
:1004E000299A82E00E94610029988FE99FE0019794
:1004F000F1F700C0000088E20E94A20188E00E949B
:10050000A20181E00E94A2018FE39FE10197F1F730
:1005100000C0000086E00E94A2018CE00E94A201BF
:1005200084B18C6384B985B18C6385B98AB18AB989
:100530000E94A50109E010E0EAE0EE2EF12C4B99B3
:100540001BC0809100019091010197FD0EC18A307E
:10055000910514F089E090E0019690930101809359
:1005600000019FEF27E883E1915020408040E1F7B0
:1005700000C000000E94A5014A991DC080910001A1
:1005800090910101823091050CF4F2C08C309105FC
:1005900014F08BE090E001979093010180930001AB
:1005A0009FEF27E883E1915020408040E1F700C0B1
:1005B00000000E94A501499917C080910201909105
:1005C0000301893091050CF0D6C0F0920301E0924E
:1005D00002019FEF23EC89E0915020408040E1F739
:1005E00000C000000E94A5014899A9CF81E00E94A7
:1005F000A2018FE39FE10197F1F700C00000109383
:1006000057010093560187E090E090935901809341
:10061000580120E230E030935B0120935A0190931F
:100620005D0180935C0182E490E090935F01809390
:100630005E018CE090E0909361018093600183E51E
:1006400090E090936301809362018BE290E090933D
:1006500065018093640189E390E090936701809342
:1006600066018BE190E0909369018093680179E0E5
:10067000B72E80EC0E94A2019FEF21EE84E0915002
:1006800020408040E1F700C0000010925501109218
:10069000540180E80E94A201CC24C394D12C809103
:1006A00000019091010197FD0196959587958C1514
:1006B0009D050CF473C04090020150900301052C7D
:1006C000000C6608770840E050E0BA0114141504E5
:1006D0001604170444F40E94E304A30192010E944B
:1006E000B805AB01BC01CE0101960E940201CE010A
:1006F00001960E947600CE0101960E94B3006090A0
:100700009E0170909F019FEF691A790A70925301C0
:100710006092520180919A0190919B010097D1F1D2
:100720000E943B054B016114710419F0C3010E9442
:10073000BB008AE891E00E9495018DE291E00E9461
:1007400095018091540190915501FC01EE0FFF1F1E
:10075000E45CFE4F918280820196909355018093D4
:1007600054012FEFC21AD20A9ACF81E090E0F5CE61
:1007700081E090E011CF8336910514F082E690E09D
:10078000019690930301809302018336910509F449
:100790001CCF1FCF60E070E0CB01C4CF80EC0E9483
:1007A000A201809100019091010197FD019695951C
:1007B00087956C012FEFC21AD20A809100019091A7
:1007C00001018C159D050CF459C040900201509018
:1007D0000301052C000C6608770840E050E0BA01E0
:1007E000141415041604170444F40E94E304A3012E
:1007F00092010E94B805AB01BC01CE0101960E9496
:100800000201CE0101960E947600CE0101960E945F
:10081000B30080919E0190919F01019690935301A6
:1008200080935201009711F00E94BB0080919A01C1
:1008300090919B01412C512C3201009719F00E949C
:100840003B052B018AE891E00E9495018DE291E041
:100850000E9495018091540190915501FC01EE0F89
:10086000FF1FE45CFE4F5182408201969093550138
:10087000809354018FEFC81AD80A9FCFBA94B11051
:10088000F8CE9FEF25EA8EE0915020408040E1F7BE
:1008900000C0000010923B0110923A011092390101
:1008A000109238018091000190910101029709F0A6
:1008B00046CE409156015091570160913C01709194
:1008C0003D0131E020E06417750709F030E0832F27
:1008D000922F20913E0130913F014217530709F4B6
:1008E000019640915801509159016417750709F418
:1008F00001964217530709F4019622E030E0309345
:100900003B0120933A0102970CF416CE81E00E943D
:10091000A2018FE39FE10197F1F700C0000080EC96
:100920000E94A20181E391E00E94950105CE8F9281
:100930009F92AF92BF92CF92DF92EF92FF92CF93AE
:10094000DF93EC01688179818A819B816115710552
:100950008105910521F464E279ED8BE597E02DE1C5
:1009600033EF41E050E00E94B80549015A019B0174
:10097000AC01A7EAB1E40E94D7056B017C01ACEEA3
:10098000B4EFA50194010E94E505C60ED71EE81E2E
:10099000F91EF7FE06C081E0C81AD108E10880E818
:1009A000F80AC882D982EA82FB82C701B6019F7722
:1009B000DF91CF91FF90EF90DF90CF90BF90AF90FD
:1009C0009F908F9008958F929F92AF92BF92CF92F7
:1009D000DF92EF92FF926091040170910501809186
:1009E000060190910701611571058105910521F4BA
:1009F00064E279ED8BE597E02DE133EF41E050E0E3
:100A00000E94B80549015A019B01AC01A7EAB1E473
:100A10000E94D7056B017C01ACEEB4EFA5019401F7
:100A20000E94E505C60ED71EE81EF91EF7FE06C099
:100A300081E0C81AD108E10880E8F80AC0920401F0
:100A4000D0920501E0920601F0920701C701B601BC
:100A50009F77FF90EF90DF90CF90BF90AF909F90E7
:100A60008F900895609304017093050180930601AF
:100A70009093070108951F93FC0199278827BC01D3
:100A8000E89411911032E9F3193010F01E30C8F3D8
:100A90001B3251F01D3249F4689406C00E94710562
:100AA000610F711D811D911D119110531A30B0F30A
:100AB0003EF490958095709561957F4F8F4F9F4F35
:100AC0001F910895BB272A3051F4992342F4BDE2C7
:100AD00090958095709561957F4F8F4F9F4F0C94A7
:100AE0008705592F482F372F262F660F771F881F0E
:100AF000991F660F771F881F991F620F731F841F2E
:100B0000951F660F771F881F991F0895BB27FA014D
:100B1000A62F6217710581059105330B30FB66F036
:100B2000AA27660F771F881F991FAA1FA21710F008
:100B3000A21B63953850A9F7A05DAA3308F0A95D00
:100B4000A19336F7B111B1931082CA010C94A80594
:100B5000DC01FC01672F71917723E1F7329704C024
:100B60007C916D9370836291AE17BF07C8F30895AF
:100B7000052E97FB1EF400940E94CF0557FD07D069
:100B80000E94210607FC03D04EF40C94CF0550952B
:100B90004095309521953F4F4F4F5F4F0895909569
:100BA0008095709561957F4F8F4F9F4F08950E945C
:100BB0004306A59F900DB49F900DA49F800D911D9D
:100BC00011240895B7FF0C94D7050E94D705821B06
:100BD000930B08952F923F924F925F926F927F9264
:100BE0008F929F92AF92BF92CF92DF92EF92FF923D
:100BF0000F931F93CF93DF93CDB7DEB7CA1BDB0BE9
:100C00000FB6F894DEBF0FBECDBF09942A8839888D
:100C100048885F846E847D848C849B84AA84B98494
:100C2000C884DF80EE80FD800C811B81AA81B981A0
:100C3000CE0FD11D0FB6F894DEBF0FBECDBFED01B4
:100C40000895A1E21A2EAA1BBB1BFD010DC0AA1F0D
:100C5000BB1FEE1FFF1FA217B307E407F50720F025
:100C6000A21BB30BE40BF50B661F771F881F991FA0
:100C70001A9469F760957095809590959B01AC01E9
:100C8000BD01CF010895A29FB001B39FC001A39FF2
:100C9000700D811D1124911DB29F700D811D1124B5
:100CA000911D0895EE0FFF1F0590F491E02D09941A
:100CB0000F931F93CF93DF938230910510F482E05E
:100CC00090E0E091A201F091A30130E020E0B0E0DB
:100CD000A0E0309799F42115310509F44AC0281B8A
:100CE000390B24303105D8F58A819B816115710556
:100CF00089F1FB0193838283FE0111C04081518100
:100D00000281138148175907E0F04817590799F4F1
:100D1000109761F012960C93129713961C933296CB
:100D2000CF01DF91CF911F910F9108950093A20100
:100D30001093A301F4CF2115310551F04217530749
:100D400038F0A901DB019A01BD01DF01F801C1CF33
:100D5000EF01F9CF9093A3018093A201CDCFFE01C3
:100D6000E20FF31F81939193225031093983288335
:100D7000D7CF2091A0013091A101232B41F42091E4
:100D80000A0130910B013093A1012093A001209121
:100D90000801309109012115310541F42DB73EB705
:100DA00040910C0150910D01241B350BE091A001E5
:100DB000F091A101E217F307A0F42E1B3F0B2817B7
:100DC000390778F0AC014E5F5F4F2417350748F0C4
:100DD0004E0F5F1F5093A1014093A0018193919307
:100DE0009FCFF0E0E0E09CCFCF93DF930097E9F056
:100DF000FC01329713821282A091A201B091A3014B
:100E0000ED0130E020E01097A1F420813181820FC4
:100E1000931F2091A0013091A1012817390709F0F3
:100E200061C0F093A101E093A001DF91CF910895FB
:100E3000EA01CE17DF07E8F54A815B819E01411583
:100E40005105B1F7E901FB83EA8349915991C40F38
:100E5000D51FEC17FD0761F4808191810296840F04
:100E6000951FE90199838883828193819B838A837B
:100E7000F0E0E0E012968D919C9113970097B9F500
:100E80002D913C911197CD010296820F931F2091D5
:100E9000A0013091A1012817390739F6309751F593
:100EA0001092A3011092A201B093A101A093A001FE
:100EB000BCCFD383C28340815181840F951FC81753
:100EC000D90761F44E5F5F4F88819981480F591FA0
:100ED000518340838A819B819383828321153105CD
:100EE00009F0B0CFF093A301E093A2019ECFFD01E2
:100EF000DC01C0CF13821282D7CFB0E0A0E0E3E8DC
:100F0000F7E00C94EC058C01009751F4CB010E94A2
:100F100058068C01C801CDB7DEB7E0E10C94080695
:100F2000FC01E60FF71F9C0122503109E217F3077D
:100F300008F49DC0D901CD91DC911197C617D70750
:100F400098F0C530D10530F3CE0104978617970786
:100F500008F3C61BD70B2297C193D1936D937C9353
:100F6000CF010E94F406D6CF5B01AC1ABD0A4C013A
:100F70008C0E9D1EA091A201B091A301512C412C79
:100F8000F12CE12C109731F58091A0019091A101F5
:100F90008815990509F05CC04616570608F058C038
:100FA0008091080190910901009741F48DB79EB797
:100FB00040910C0150910D01841B950BE817F90726
:100FC00008F055C0F093A101E093A001F9017183ED
:100FD0006083A0CF8D919C91119712966C9012977F
:100FE00013967C901397A815B90559F56C0142E04A
:100FF000C40ED11CCA14DB0420F1AC014A195B09F0
:10100000DA011296159780F06282738251834083D1
:10101000D9016D937C93E114F10471F0D70113961B
:10102000FC93EE93129776CF22968C0F9D1FF901B9
:1010300091838083F301EFCFF093A301E093A201AA
:1010400069CF4816590608F42C017D01D3019ACFC7
:10105000CB010E9458067C01009749F0AE01B8010F
:101060000E943A08C8010E94F406870153CF10E09D
:1010700000E050CFFB01DC0102C001900D92415015
:101080005040D8F70895FB01DC0101900D9200203B
:10109000E1F70895FB01DC014150504048F0019018
:1010A0000D920020C9F701C01D9241505040E0F759
:1010B0000895AEE0B0E0EFE5F8E00C94F8050D8996
:1010C0001E8986E08C831A8309838FEF9FE79E83B6
:1010D0008D83AE01475E5F4F6F89788DCE0101969B
:1010E0000E947C082F813885020F131FF80110829F
:1010F0002E96E4E00C941406ABE0B0E0E2E8F8E0F1
:101100000C94EA057C013B018A01FC0117821682DE
:10111000838181FFC8C1CE0101965C01F7019381F3
:10112000F30193FD859193FF81913F01882309F499
:1011300053C1853239F493FD859193FF81913F012D
:10114000853229F4B70190E00E946C0AE7CF912C18
:10115000212C312CFFE1F31538F08B3211F190F492
:10116000803209F1833229F137FC3CC020ED280F91
:101170002A3050F536FE20C08AE0989E200D1124BA
:10118000922E06C08D3291F0803371F7689430F85A
:10119000F30193FD859193FF81913F018111DACF96
:1011A00021C0689431F8689432F8F2CF689433F82B
:1011B000EFCF689434F8ECCFEAE02E9E200D112496
:1011C000222E689435F8E4CF8E3229F436FC04C11F
:1011D000689436F8DDCF8C3619F4689437F8D8CF98
:1011E0008836B1F2982F9F7D95549330E0F0833686
:1011F000A1F18337C1F1833509F063C02801F2E022
:101200004F0E511CF801C080D180692D70E036FC72
:1012100002C06FEF7FEFC6010E94560A4C0168942E
:1012200037F882010AC00C5F1F4FFFE3F98388245F
:101230008394912C6501E89437F833FE2DC0522C2D
:101240008114910471F5552009F468CFB70180E24B
:1012500090E00E946C0A5A94F6CFF801808189834D
:101260000E5F1F4FE4CF2801F2E04F0E511CF80132
:10127000C080D180692D70E036FC02C06FEF7FEF37
:10128000C6010E94610A4C018201D5CFB70180E2FC
:1012900090E00E946C0A2A942814190409F0B0F70F
:1012A000CECFF60137FC859137FE81916F01B701F2
:1012B00090E00E946C0A51105A94F1E08F1A910844
:1012C000BFCF843619F0893609F077C0F80137FEB0
:1012D0006BC060817181828193810C5F1F4FF32D00
:1012E000FF763F2E97FF09C0909580957095619588
:1012F0007F4F8F4F9F4F689437F82AE030E0A50169
:101300000E949C0AC82ECA188C2C432C36FE0CC096
:10131000E89440F8C91440F434FE05C032FC03C020
:10132000F32DFE7E4F2E892C44FE95C0FE01EC0D60
:10133000F11D8081803309F087C0242D297E422E43
:10134000842D8870582E43FC95C040FE8FC09C2C85
:10135000821418F42C0C922C981844FE91C0B701FA
:1013600080E390E00E946C0A42FE09C088E790E0AA
:1013700041FE02C088E590E0B7010E946C0AC914E2
:1013800008F48AC0CA94D12C9FEFC91AD90ACA0C92
:10139000DB1CF60182916F01B70190E00E946C0A9C
:1013A000AC14BD04B1F74FCF60817181072E000CE2
:1013B000880B990B0E5F1F4F92CFD32CE894D4F873
:1013C0002AE030E0853739F1232D297FD22E8F3660
:1013D00001F148F48835A9F0F701868197812B96B1
:1013E000E2E10C940606803749F08837A9F7D4FE6D
:1013F00002C06894D2F820E130E00DC06894D4F8BF
:10140000F6CF34FE03C0822F8660D82E20E132E072
:1014100002C028E030E0F801D7FE0FC06081718182
:10142000828193810C5F1F4FA5010E949C0AC82EE8
:10143000CA183D2CE89437F867CF6081718190E03D
:1014400080E00E5F1F4FF0CF42FC02C0839478CF44
:101450008394839475CF842D867809F471CFF6CF69
:10146000B70180E290E00E946C0A83948214C0F37A
:10147000512C73CF522C5818821408F46ECFF8CF29
:10148000842D867809F47BCF8BE241FE80E247FC15
:101490008DE2B70190E071CFB70180E390E00E9448
:1014A0006C0A9A946CCF8FEF9FEF99CFFC01059057
:1014B000615070400110D8F7809590958E0F9F1F56
:1014C0000895FC016150704001900110D8F780959B
:1014D00090958E0F9F1F08950F931F93CF93DF93C7
:1014E000182F092FEB018B8181FD09C01FEF0FEF32
:1014F000812F902FDF91CF911F910F91089582FF3F
:1015000014C02E813F818C819D81281739073CF4BE
:10151000E881F981CF0101969983888310838E81B8
:101520009F8101969F838E83E3CFE885F985812F84
:101530000995892BA1F3DACFFA01AA27283051F1B6
:10154000203181F1E8946F936E7F6E5F7F4F8F4FF4
:101550009F4FAF4FB1E03ED0B4E03CD0670F781F53
:10156000891F9A1FA11D680F791F8A1F911DA11D38
:101570006A0F711D811D911DA11D20D009F4689471
:101580003F912AE0269F11243019305D3193DEF619
:10159000CF010895462F4770405D4193B3E00FD0CF
:1015A000C9F7F6CF462F4F70405D4A3318F0495DBA
:1015B00031FD4052419302D0A9F7EACFB4E0A6959D
:1015C0009795879577956795BA95C9F700976105BF
:1015D000710508959B01AC010A2E06945795479515
:1015E00037952795BA95C9F7620F731F841F951F0A
:1015F000A01D089510E0C5E3D0E004C0FE010E94E4
:0E16000052062196C633D107C9F7F894FFCFE2
:10160E0006003C00010000000000A40180004C4FC9
:10161E0054544552597C0057494E4E4552207C0039
:10162E00544F547C44524157002564007C200030B6
:08163E000077696E6E65720011
:00000001FF
